{"abi":[{"type":"function","name":"getNumber","inputs":[{"name":"x","type":"uint256","internalType":"uint256"}],"outputs":[{"name":"","type":"uint256","internalType":"uint256"}],"stateMutability":"pure"}],"bytecode":{"object":"0x6080604052348015600f57600080fd5b50609f80601d6000396000f3fe6080604052348015600f57600080fd5b506004361060285760003560e01c8063fc56365814602d575b600080fd5b603f60383660046051565b6063190190565b60405190815260200160405180910390f35b600060208284031215606257600080fd5b503591905056fea2646970667358221220d725f42dcc192c373bd77bd7286bf4bdc7753a32512ea302caecdf6054b1462f64736f6c63430008190033","linkReferences":{}},"methodIdentifiers":{"getNumber(uint256)":"fc563658"},"id":17}